:100A240001020408102040800000010002000100BF
:100A340003000100020001000400010002000100A3
:100A44000300010002000100050001000200010092
:100A54000300010002000100040001000200010083
:100A64000300010002000100060001000200010071
:100A74000300010002000100040001000200010063
:100A84000300010002000100050001000200010052
:100A94000300010002000100040001000200010043
:100AA4000300010002000100070001000200010030
:100AB4000300010002000100040001000200010023
:100AC4000300010002000100050001000200010012
:100AD4000300010002000100040001000200010003
:100AE40003000100020001000600010002000100F1
:100AF40003000100020001000400010002000100E3
:100B040003000100020001000500010002000100D1
:100B140003000100020001000400010002000100C2
:080B24000300010002000100C2
:10119600121237121165121073120D9712123612AF
:0511A6001147021238A0
:0F121900E509B40109E514C394FF50020514223E
:100E9C00E50964017061C2AFE514D39400400215FA
:100EAC0014E5147050E50A704CE508900A2C93F583
:100EBC0033243FF8E693FFE53333333354F8FEEF36
:100ECC002EF53E653D602EE53E75F003A42418F822
:100EDC00860308E6FA08E68B158A16F517E537241B
:100EEC0001F537E43536F536E43535F535E435348A
:080EFC00F534120008D2AF2208
:1010AF00E5097035E508900A2C93FF243FF8E69385
:1010BF00FEEF33333354F82EF53EF53D75F003A4B0
:1010CF002418F8860308E6FA08E68B158A16F51732
:0910DF008B118A12F513120FA601
:0110E80022E5
:100C760012123FE50964016003020D0B850B4185E5
:100C86000C42850D43AB41AA42A94390000C1200C9
:100C96002764086070C2AF9000091200DD45F0605D
:100CA6004E90000974FFF5F012011545F070409062
:100CB600000B12002720E32790001012002742089D
:100CC60090000E120027243FF8C000E6FFAB41AAB1
:100CD60042A94390000F1200274FD000F68010ABB8
:100CE60041AA42A943900009E475F001120162ABE2
:100CF60041AA42A94390000312030E8B418A4289FE
:050D060043D2AF808024
:010D0B0022C5
:050003007E007FFC22DD
:011236002295
:10116500E4F514F50AF53CF509F537F536F535F5E9
:0A11750034F53BF53AF539F5382260
:10107300E4F508F54475450075463FFFFEAB4405AE
:1010830046E546AA457002054514F9E41200540FDB
:10109300BF00010EEF64024E70E3E4F53DF53EF54B
:0B10A30015F516F517F511F512F51301
:0110AE00221F
:10114700754700754800754900754A01754B00756C
:0E1157004C88754D087BFF7A0F795B020B2CDC
:100D9700750B00750C00750D00E4FFEF75F003A4EB
:100DA7002418F876000876000876000FBF09EC755E
:100DB70044007545007546667547007548007549D6
:100DC70077E4FFAB47AA48A949C003C002C001ABFB
:100DD70044AA45A94690000312033E74112546F51F
:100DE70046E43545F54574112549F549E43548F597
:100DF700480FBF02CE7B007A007900C003C002C053
:100E070001AB44AA45A94690000312033E750E00A4
:060E1700750F0075106666
:010E1D0022B2
:100F0400C2AFE514704EE50A704AE508900A2C93C6
:100F1400FF243FF8E693FEEF33333354F8FFEE2F0C
:100F2400F53E653D602EE53E75F003A42418F88671
:100F34000308E6FA08E68B158A16F517E537240147
:100F4400F537E43536F536E43535F535E43534F53D
:060F540034120D0CD2AFB7
:010F5A002274
:100F5B0090FFFD120397EBF0A3EAF0A3E9F0856491
:100F6B0083856582E0F9A3E0FAA3E0856483856558
:100F7B0082C9F0A3EAF0A3E9F0C2AFAF3BAE3AAD42
:100F8B0039AC38EF2401F53BE43EF53AE43DF53955
:0B0F9B00E43CF538D2AF12123B80DEC0
:080792008F4F8B508A518952F0
:10079A00C2AF850E61850F62851063E563456245C8
:1007AA00617003020901AB61AA62A9639000031296
:1007BA00030E8B0E8A0F8910D2AFA9527A007B00E2
:1007CA00C003C002C001AB61AA62A9631202BFAB37
:1007DA0061AA62A96390000CE54F12006690000BB3
:1007EA00E4120066900009E4F5F0120162855C5C8F
:1007FA00855D5D855E5E855B5B855A5A855959853F
:10080A005858855353855454855555855F5F85607F
:10081A0060855656855757E54F131313541FAB611E
:10082A00AA62A96390000E12006690000E120027B9
:10083A00900A2493900010120066E54F5407900026
:10084A000D12006690000D120027900A2493900062
:10085A000F12006612123EAB61AA62A96312123924
:10086A00C2AFAA62A963E54F75F003A42418F8A6DB
:10087A006108A60208A601AB0BAA0CA90DC003C009
:10088A0002C001AB61AA62A96390000312033E7B16
:10089A00007A007900C003C002C001AB61AA62A954
:1008AA006390000612033EE50D450C450B6018AB3C
:1008BA0061AA62A963C003C002C001AB0BAA0CA95A
:1008CA000D90000612033EAB61AA62A9638B0B8AE4
:1008DA000C890D900010120027420890000E120099
:1008EA0027243FF8C000E6FF90000F1200274FD0E0
:0B08FA0000F6D2AF7F0022D2AF7F4695
:0109050022CF
:060B2C008B448A45894656
:100B3200C2AFE54D75F003A42418F8860308E6FA5F
:100B420008E64A4B6003020BD1E54D75F003A4247D
:100B520018F87600087600087601D2AF85475285EC
:100B62004853854954854A55854B56854C57E4F57B
:100B720058F559AB44AA45A946120440755300756D
:100B82005400755500E4F556F557F55BF55AF559DD
:100B9200F558F55CF55DF55EF55FF560AF4D120752
:100BA200928F4EE54E7010C2AF053CD2AFE509B44C
:100BB200011A120F048015C2AFE54D75F003A4248B
:100BC20018F87600087600087600D2AFAF4E22D22F
:030BD200AF7F28CA
:010BD50022FD
:10103000D3EF9400EE94004039C2AFAB11AA12A9CD
:101040001390000E120027243FF8C000E6FD900028
:101050000F120027F45DD000F67009900010120006
:1010600027F45208900009EE8FF0120162D2AF12FD
:031070000F042248
:040906008F448B4649
:10090A00E544D394005018ED94005013E546940042
:10091A00500DE5489400E54794005003020A21ED82
:10092A00D3943B40037F5122E546D3943B40037F57
:10093A005222D3E54894E7E547940340037F5322C4
:10094A00AF057E007C007D3C1203BBC004A905AA4A
:10095A0006AB07AF447E007C0E7D101203BBD000AD
:10096A00EF2BFBEE3AFAED39F9EC38F8E4FCFDFE30
:10097A00EB2546FFEE3AFEED39FDEC38FCE47B321E
:10098A00FAF9F812018FC004C005C006C007E5488D
:10099A00240AFFE43547FEE433FDE433FCE47B320A
:1009AA00FAF9F812018FE47BE87A03F9F812021ACD
:1009BA00D003D002D001D000EB2FF54CEA3EF54B24
:1009CA00E93DF54AE83CF549E4FBFA7901F8AF4C10
:1009DA00AE4BAD4AAC4912021A8E4D8F4EE54CF51C
:1009EA004CE54BF54BE4F54AF549AE4BAF4C1210CA
:1009FA0030D3E54E9400E54D940040187F007E8088
:100A0A001210307F007E80121030E54E154E7002B3
:090A1A00154D80DD7F00227F54A0
:010A230022B0
:100FA60012123D750901A817088683088682E0F9A2
:100FB600A37899E0F6A308D9FA188881D065D06499
:100FC600D0E0F8D0E0F9D0E0FAD0E0FBD0E0FCD0F9
:100FD600E0FDD0E0FED0E0FFD082D083D0D0D0F0CC
:050FE600D0E0D2AF32A3
:100D0C00C0E0C0F0C0D0C083C082EFC0E0EEC0E055
:100D1C00EDC0E0ECC0E0EBC0E0EAC0E0E9C0E0E828
:100D2C00C0E0C064C065A813088683088682E5818C
:100D3C00C3949904F97899E9F0A3E6F0A308D9FAD9
:100D4C0012123D851612851713853E3DA81708868D
:100D5C0083088682E0F9A37899E0F6A308D9FA18FB
:100D6C008881D065D064D0E0F8D0E0F9D0E0FAD03A
:100D7C00E0FBD0E0FCD0E0FDD0E0FED0E0FFD08284
:0B0D8C00D083D0D0D0F0D0E0D2AF3246
:03000800020D4C9A
:03000B00020E1EC4
:100E1E00C28C758CB8758A00D28CC2AFC0E0C0F09F
:100E2E00C0D0C083C082EFC0E0EEC0E0EDC0E0EC09
:100E3E00C0E0EBC0E0EAC0E0E9C0E0E8C0E0C064BA
:100E4E00C065A813088683088682E581C394990439
:100E5E00F97899E9F0A3E6F0A308D9FA121219D29B
:100E6E00AF120C76120E9CD065D064D0E0F8D0E0B4
:100E7E00F9D0E0FAD0E0FBD0E0FCD0E0FDD0E0FE0F
:0E0E8E00D0E0FFD082D083D0D0D0F0D0E032C0
:011237002294
:011238002293
:011239002292
:01123A002291
:01123B002290
:01123C00228F
:060440008B4F8A50895128
:1004460085585885595985555A85565B85575CABED
:100456005A055CE55CAA5B7002055B14F97413121D
:100466000054AB5A055CE55CAA5B7002055B14F9A7
:10047600E551120054E550FFAB5A055CE55CAA5BFA
:100486007002055B14F9EF120054AB5A055CE55C8B
:10049600AA5B7002055B14F9E551120054E550FFA2
:1004A600AB5A055CE55CAA5B7002055B14F9EF12BA
:1004B6000054AB5A055CE55CAA5B7002055B14F957
:1004C600E4120054AB5A055CE55CAA5B7002055B5E
:1004D60014F97411120054AB5A055CE55CAA5B7002
:1004E60002055B14F97422120054AB5A055CE55CF4
:1004F600AA5B7002055B14F97433120054AB5A05FB
:100506005CE55CAA5B7002055B14F9744412005446
:10051600AB5A055CE55CAA5B7002055B14F974775F
:10052600120054AB5A055CE55CAA5B7002055B14CD
:10053600F97466120054AB5A055CE55CAA5B70025E
:10054600055B14F97455120054AB5A055CE55CAAB8
:100556005B7002055B14F97444120054AB52AA5343
:10056600A954AF01AE02AD037C0078101202ACAB09
:100576005A055CE55CAA5B7002055B14F9EF120094
:1005860054E553FFAB5A055CE55CAA5B7002055B5C
:1005960014F9EF120054AB5A055CE55CAA5B7002D5
:1005A600055B14F9E554120054AB5A055CE55CAAE8
:1005B6005B7002055B14F9E4120054E5572440E42D
:1005C6003556FFAB5A055CE55CAA5B7002055B1409
:1005D600F9EF120054E5572440AB5AAA5BA95C1206
:0805E6000054AB55AA56A957B9
:0105EE0022EA
:01123D00228E
:01123E00228D
:01123F00228C
:03000000020BD61A
:100BD60078FEE4F6D8FD9000007FFF7E01E4F0A3E6
:100BE600DFFCDEFA756401756500758198020C31CB
:1011E7007580FFC2B5D2B6D2B4AF80C2B4EF20E7E4
:0111F700F601
:0111F80022D4
:1011F900AE071211E7C2B5C2B68E80D2B4C2B4220C
:10120900AE071211E7D2B5C2B68E80D2B4C2B422EB
:10117F00AE07AC03ED6003430640430680AF061293
:07118F0011F9AF040212097F
:1010E9008B448A458946ED600343074043078012D4
:1010F90011F9AB44AA45A94612000E60130546E54D
:10110900467002054514F912000EFF12120980E219
:0111190022B3
:1011C0007F381211F97F0C1211F97F061211F97F85
:0411D000010211F90E
:0E12280043757272656E742054696D653A00EC
:1011AB004200000000420006000042000400004222
:0411BB00000200002E
:100FEB001211961211D4754700754800754900759A
:100FFB004A01754B00754C08754D047BFF7A1179CE
:10100B001A120B2C754700754800754900754A017B
:10101B00754B00754C48754D057BFF7A0579EF12C2
:05102B000B2C0210AFC8
:10111A0090FFFD120397EBF0A3EAF0A3E9F0E4F5E0
:10112A0047F5487B01FDFF12090663900190000113
:0D113A00E004F070E9900000E004F080E1B6
:1005EF0090FFFD120397EBF0A3EAF0A3E9F01211CD
:1005FF00C07BFF7A127928E4FDFF1210E9E4900026
:10060F0000F0A3F0C3900001E0943C900000E09450
:10061F00004015900007E004F07006900006E0041B
:10062F00F0E4900000F0A3F0C3900007E0943C903A
:10063F000006E094004015900005E004F07006906D
:10064F000004E004F0E4900006F0A3F0C39000056E
:10065F00E09418900004E094004015900003E0042B
:10066F00F07006900002E004F0E4900004F0A3F0B4
:10067F00900002E0FEA3E0FF7C007D64120088EF93
:10068F002430FB7D017F0212117F900002E0FEA358
:10069F00E0FF7C007D641200887E007F0ACFCDCF03
:1006AF00CECCCE120088EF2430FB7D017F031211D8
:1006BF007F900002E0FEA3E0FF7C007D0A1200881D
:1006CF00ED2430FB7D017F0412117F900004E0FECA
:1006DF00A3E0FF7C007D0A120088EF2430FB7D0130
:1006EF007F0612117F900004E0FEA3E0FF7C007DE7
:1006FF000A120088ED2430FB7D017F0712117F7BEA
:10070F003A7D017F0812117F900006E0FEA3E0FF03
:10071F007C007D0A120088EF2430FB7D017F0912D7
:10072F00117F900006E0FEA3E0FF7C007D0A12001F
:10073F0088ED2430FB7D017F0A12117F7B3A7D010A
:10074F007F0B12117F900000E0FEA3E0FF7C007D85
:10075F000A120088EF2430FB7D017F0C12117F906D
:10076F000000E0FEA3E0FF7C007D0A120088ED246C
:10077F0030FB7D017F0D12117F7F0F7E0012103035
:03078F000206134C
:1011D4005389F0438901758CB8E4F58AD2A9D28C7D
:0311E400D2AF2265
:100BF600020FEBE493A3F8E493A34003F68001F21B
:100C060008DFF48029E493A3F85407240CC8C333FF
:100C1600C4540F4420C8834004F456800146F6DFCE
:100C2600E4800B01020408102040809011ABE47EA2
:100C3600019360BCA3FF543F30E509541FFEE493C3
:100C4600A360010ECF54C025E060A840B8E493A38A
:100C5600FAE493A3F8E493A3C8C582C8CAC583CAB5
:100C6600F0A3C8C582C8CAC583CADFE9DEE780BE6D
:0111BF00002F
:10000E00BB010689828A83E0225002E722BBFE02F0
:09001E00E32289828A83E4932223
:10002700BB010CE58229F582E5833AF583E022508E
:1000370006E92582F8E622BBFE06E92582F8E222D8
:0D004700E58229F582E5833AF583E49322F2
:10005400BB010689828A83F0225002F722BBFE018B
:02006400F32285
:10006600F8BB010DE58229F582E5833AF583E8F0D0
:10007600225006E92582C8F622BBFE05E92582C87C
:02008600F22264
:10008800BC000BBE0029EF8DF084FFADF022E4CC5C
:10009800F875F008EF2FFFEE33FEEC33FCEE9DEC25
:1000A800984005FCEE9DFE0FD5F0E9E4CEFD22ED6B
:1000B800F8F5F0EE8420D21CFEADF075F008EF2FB5
:1000C800FFED33FD4007985006D5F0F222C398FDA6
:0500D8000FD5F0EA2243
:1000DD00BB0110E58229F582E5833AF583E0F5F061
:1000ED00A3E0225009E92582F886F008E622BBFE3E
:1000FD000AE92582F8E2F5F008E222E5832AF58384
:08010D00E993F5F0A3E9932248
:10011500BB010DC58229C582C5833AC5830203E8A3
:100125005011C58229F808E5F026F618F5F0E582A4
:1001350036F622BBFE11C58229F808E225F0F5F056
:10014500F218E23582F222F8E58229F582E5832A62
:0D015500F58374019325F0F5F0E493382252
:10016200F8BB0111E58229F582E5833AF583E8F0CF
:10017200E5F0A3F0225009E92582C8F608A6F0228C
:0D018200BBFE09E92582C8F2E5F008F22273
:10018F00E88FF0A4CC8BF0A42CFCE98EF0A42CFC0F
:10019F008AF0EDA42CFCEA8EF0A4CDA8F08BF0A48D
:1001AF002DCC3825F0FDE98FF0A42CCD35F0FCEBEC
:1001BF008EF0A4FEA9F0EB8FF0A4CFC5F02ECD39B1
:0F01CF00FEE43CFCEAA42DCE35F0FDE43CFC221E
:1001DE0075F008758200EF2FFFEE33FECD33CDCCD8
:1001EE0033CCC58233C5829BED9AEC99E58298405B
:1001FE000CF582EE9BFEED9AFDEC99FC0FD5F0D638
:10020E00E4CEFBE4CDFAE4CCF9A88222B800C1B961
:10021E000059BA002DEC8BF084CFCECDFCE5F0CB9F
:10022E00F97818EF2FFFEE33FEED33FDEC33FCEBD8
:10023E0033FB10D703994004EB99FB0FD8E5E4F993
:10024E00FA227818EF2FFFEE33FEED33FDEC33FC80
:10025E00C933C910D7059BE99A4007EC9BFCE99A74
:10026E00F90FD8E0E4C9FAE4CCFB2275F010EF2FB9
:10027E00FFEE33FEED33FDCC33CCC833C810D707B9
:10028E009BEC9AE899400AED9BFDEC9AFCE899F8F4
:0E029E000FD5F0DAE4CDFBE4CCFAE4C8F92287
:1002AC00E8600FECC313FCED13FDEE13FEEF13FF30
:0302BC00D8F12254
:1002BF00BB011A89828A83D0F0D0E0F8D0E0F9D060
:1002CF00E0FAD0E0FBE8C0E0C0F00204195016E9F4
:1002DF00F8D083D082D0E0F9D0E0FAD0E0FBC08232
:1002EF00C083020407BBFE16E9F8D083D082D0E0AA
:0F02FF00F9D0E0FAD0E0FBC082C08302042B22CA
:10030E00BB010DE58229F582E5833AF583020410DF
:10031E005007E92582F80203FEBBFE07E92582F8A5
:10032E00020422E58229F582E5833AF5830204343C
:10033E00BB0120E58229F582E5833AF583D0F0D022
:10034E00E0F8D0E0F9D0E0FAD0E0FBE8C0E0C0F091
:10035E000204195018E92582F8D083D082D0E0F932
:10036E00D0E0FAD0E0FBC082C083020407BBFE18C7
:10037E00E92582F8D083D082D0E0F9D0E0FAD0E03F
:09038E00FBC082C08302042B2293
:10039700E5652582F582E5643583F583B5640485D3
:1003A70082652210AF06858265F56422858265F530
:0403B70064D2AF223B
:1003BB00EC8EF0A4CCC5F0CCCDF8EFA4CEC5F02DCF
:1003CB00FDE43CFCE8A42EC8C5F03DFDE43CFCEF8D
:0D03DB00A4FFE5F028FEE43DFDE43CFC221B
:1003E800C5F0F8A3E028F0C5F0F8E58215827002A0
:0603F8001583E038F0223D
:0903FE00E6FB08E6FA08E6F92224
:09040700EBF608EAF608E9F6221A
:09041000E0FBA3E0FAA3E0F922ED
:09041900EBF0A3EAF0A3E9F022E4
:09042200E2FB08E2FA08E2F9220B
:09042B00EBF208EAF208E9F22202
:0C043400E493FB740193FA740293F92224
:00000001FF
