:100B0D0001020408102040800000010002000100D5
:100B1D0003000100020001000400010002000100B9
:100B2D0003000100020001000500010002000100A8
:100B3D000300010002000100040001000200010099
:100B4D000300010002000100060001000200010087
:100B5D000300010002000100040001000200010079
:100B6D000300010002000100050001000200010068
:100B7D000300010002000100040001000200010059
:100B8D000300010002000100070001000200010046
:100B9D000300010002000100040001000200010039
:100BAD000300010002000100050001000200010028
:100BBD000300010002000100040001000200010019
:100BCD000300010002000100060001000200010007
:100BDD0003000100020001000400010002000100F9
:100BED0003000100020001000500010002000100E8
:100BFD0003000100020001000400010002000100D9
:080C0D000300010002000100D8
:1012EB001213871212BA1211F5120E8012138612F4
:0512FB00129C021388A3
:0F136900E509B40109E514C394FF5002051422ED
:100F8500E50964017061C2AFE514D3940040021510
:100F950014E5147050E50A704CE508900B1593F5AF
:100FA50033243FF8E693FFE53333333354F8FEEF4C
:100FB5002EF53E653D602EE53E75F003A42418F838
:100FC500860308E6FA08E68B158A16F517E5372431
:100FD50001F537E43536F536E43535F535E43534A0
:080FE500F534120008D2AF221E
:10123100E5097035E508900B1593FF243FF8E69317
:10124100FEEF33333354F82EF53EF53D75F003A42C
:101251002418F8860308E6FA08E68B158A16F517AE
:091261008B118A12F513121128F9
:01126A002261
:100D5F0012138FE50964016003020DF4850B4185C1
:100D6F000C42850D43AB41AA42A94390000C1200DF
:100D7F002764086070C2AF9000091200DD45F06073
:100D8F004E90000974FFF5F012011545F070409078
:100D9F00000B12002720E3279000101200274208B3
:100DAF0090000E120027243FF8C000E6FFAB41AAC7
:100DBF0042A94390000F1200274FD000F68010ABCE
:100DCF0041AA42A943900009E475F001120162ABF8
:100DDF0041AA42A94390000312030E8B418A428914
:050DEF0043D2AF80803B
:010DF40022DC
:050003007E007FFC22DD
:011386002244
:1012BA00E4F514F50AF53CF509F537F536F535F593
:0A12CA0034F53BF53AF539F538220A
:1011F500E4F508F54475450075463FFFFEAB44052B
:1012050046E546AA457002054514F9E41200540F57
:10121500BF00010EEF64024E70E3E4F53DF53EF5C7
:0B12250015F516F517F511F512F5137D
:01123000229B
:10129C00754700754800754900754A01754B007516
:0E12AC004C86754D087BFF7A107993020C1565
:100E8000750B00750C00750D00E4FFEF75F003A401
:100E90002418F876000876000876000FBF09EC7574
:100EA00044007545007546717547007548007549E1
:100EB00082E4FFAB47AA48A949C003C002C001AB06
:100EC00044AA45A94690000312033E74112546F535
:100ED00046E43545F54574112549F549E43548F5AD
:100EE000480FBF02CE7B007A007900C003C002C069
:100EF00001AB44AA45A94690000312033E750E00BB
:060F0000750F0075107171
:010F060022C8
:100FED00C2AFE514704EE50A704AE508900B1593F3
:100FFD00FF243FF8E693FEEF33333354F8FFEE2F23
:10100D00F53E653D602EE53E75F003A42418F88687
:10101D000308E6FA08E68B158A16F517E53724015D
:10102D00F537E43536F536E43535F535E43534F553
:06103D0034120DF5D2AFE4
:01104300228A
:1010930090FFFD120397EBF0A3EAF0A3E9F0856F4D
:1010A30083857082E0F9A3E0FAA3E0856F838570FE
:1010B30082C9F0A3EAF0A3E9F0C2AFAF3BAE3AAD09
:1010C30039AC38EF2401F53BE43EF53AE43DF5391C
:0B10D300E43CF538D2AF12138B80DE36
:08076F008F4F8B508A51895213
:10077700C2AF850E61850F62851063E563456245EB
:100787006170030208DEAB61AA62A96390000312DD
:10079700030E8B0E8A0F8910D2AFA9527A007B0005
:1007A700C003C002C001AB61AA62A9631202BFAB5A
:1007B70061AA62A96390000CE54F12006690000BD6
:1007C700E4120066900009E4F5F0120162855C5CB2
:1007D700855D5D855E5E855B5B855A5A8559598562
:1007E7005858855353855454855555855F5F8560A3
:1007F70060855656855757E54F131313541FAB6142
:10080700AA62A96390000E12006690000E120027DC
:10081700900B0D93900010120066E54F540790005F
:100827000D12006690000D120027900B0D9390009B
:100837000F12006612138EAB61AA62A963121389A5
:10084700C2AFAA62A963E54F75F003A42418F8A6FE
:100857006108A60208A601AB0BAA0CA90DC003C02C
:1008670002C001AB61AA62A96390000312033E7B39
:10087700007A007900C003C002C001AB61AA62A977
:100887006390000612033EE50D450C450B6018AB5F
:1008970061AA62A963C003C002C001AB0BAA0CA97D
:1008A7000D90000612033EAB61AA62A9638B0B8A07
:1008B7000C890D900010120027420890000E1200BC
:1008C70027243FF8C000E6FF90000F1200274FD003
:0B08D70000F6D2AF7F0022D2AF7F46B8
:0108E20022F3
:060C15008B448A4589466C
:100C1B00C2AFE54D75F003A42418F8860308E6FA75
:100C2B0008E64A4B6003020CBAE54D75F003A424A9
:100C3B0018F87600087600087601D2AF8547528502
:100C4B004853854954854A55854B56854C57E4F591
:100C5B0058F559AB44AA45A9461204407553007583
:100C6B005400755500E4F556F557F55BF55AF559F3
:100C7B00F558F55CF55DF55EF55FF560AF4D120768
:100C8B006F8F4EE54E7010C2AF053CD2AFE509B485
:100C9B00011A120FED8015C2AFE54D75F003A424B8
:100CAB0018F87600087600087600D2AFAF4E22D245
:030CBB00AF7F28E0
:010CBE002213
:1011B200D3EF9400EE94004039C2AFAB11AA12A94A
:1011C2001390000E120027243FF8C000E6FD9000A5
:1011D2000F120027F45DD000F67009900010120083
:1011E20027F45208900009EE8FF0120162D2AF127A
:0311F2000FED22DC
:0408E3008F648B662D
:1008E700E564D394005018ED94005013E566940026
:1008F700500DE5689400E567940050030209FEED8A
:10090700D3943B40037F5122E566D3943B40037F5A
:100917005222D3E56894E7E567940340037F5322A7
:10092700AF057E007C007D3C1203BBC004A905AA6D
:1009370006AB07AF647E007C0E7D101203BBD000B0
:10094700EF2BFBEE3AFAED39F9EC38F8E4FCFDFE53
:10095700EB2566FFEE3AFEED39FDEC38FCE47B3221
:10096700FAF9F812018FC004C005C006C007E56890
:10097700240AFFE43567FEE433FDE433FCE47B320D
:10098700FAF9F812018FE47BE87A03F9F812021AF0
:10099700D003D002D001D000EB2FF56CEA3EF56B07
:1009A700E93DF56AE83CF569E4FBFA7901F8AF6CD3
:1009B700AE6BAD6AAC6912021A8E6D8F6EE56CF57F
:1009C7006CE56BF56BE4F56AF569AE6BAF6C12110C
:1009D700B2D3E56E9400E56D940040187F007E80E9
:1009E7001211B27F007E801211B2E56E156E700291
:0909F700156D80DD7F00227F54A4
:010A000022D3
:1011280012138D750901A817088683088682E0F9CD
:10113800A378A4E0F6A308D9FA188881D070D06FF4
:10114800D0E0F8D0E0F9D0E0FAD0E0FBD0E0FCD075
:10115800E0FDD0E0FED0E0FFD082D083D0D0D0F048
:05116800D0E0D2AF321F
:100DF500C0E0C0F0C0D0C083C082EFC0E0EEC0E06C
:100E0500EDC0E0ECC0E0EBC0E0EAC0E0E9C0E0E83E
:100E1500C0E0C06FC070A813088683088682E5818C
:100E2500C394A404F978A4E9F0A3E6F0A308D9FAD9
:100E350012138D851612851713853E3DA817088652
:100E450083088682E0F9A378A4E0F6A308D9FA1806
:100E55008881D070D06FD0E0F8D0E0F9D0E0FAD03A
:100E6500E0FBD0E0FCD0E0FDD0E0FED0E0FFD0829A
:0B0E7500D083D0D0D0F0D0E0D2AF325C
:03000800020E35B0
:03000B00020F07DA
:100F0700C28C758CB8758A00D28CC2AFC0E0C0F0B5
:100F1700C0D0C083C082EFC0E0EEC0E0EDC0E0EC1F
:100F2700C0E0EBC0E0EAC0E0E9C0E0E8C0E0C06FC5
:100F3700C070A813088683088682E581C394A40439
:100F4700F978A4E9F0A3E6F0A308D9FA121369D255
:100F5700AF120D5F120F85D070D06FD0E0F8D0E0E0
:100F6700F9D0E0FAD0E0FBD0E0FCD0E0FDD0E0FE25
:0E0F7700D0E0FFD082D083D0D0D0F0D0E032D6
:011387002243
:011388002242
:011389002241
:01138A002240
:01138B00223F
:01138C00223E
:060440008B4F8A50895128
:1004460085585885595985555A85565B85575CABED
:100456005A055CE55CAA5B7002055B14F97413121D
:100466000054AB5A055CE55CAA5B7002055B14F9A7
:10047600E551120054E550FFAB5A055CE55CAA5BFA
:100486007002055B14F9EF120054AB5A055CE55C8B
:10049600AA5B7002055B14F9E551120054E550FFA2
:1004A600AB5A055CE55CAA5B7002055B14F9EF12BA
:1004B6000054AB5A055CE55CAA5B7002055B14F957
:1004C600E4120054AB5A055CE55CAA5B7002055B5E
:1004D60014F97411120054AB5A055CE55CAA5B7002
:1004E60002055B14F97422120054AB5A055CE55CF4
:1004F600AA5B7002055B14F97433120054AB5A05FB
:100506005CE55CAA5B7002055B14F9744412005446
:10051600AB5A055CE55CAA5B7002055B14F974775F
:10052600120054AB5A055CE55CAA5B7002055B14CD
:10053600F97466120054AB5A055CE55CAA5B70025E
:10054600055B14F97455120054AB5A055CE55CAAB8
:100556005B7002055B14F97444120054AB52AA5343
:10056600A954AF01AE02AD037C0078101202ACAB09
:100576005A055CE55CAA5B7002055B14F9EF120094
:1005860054E553FFAB5A055CE55CAA5B7002055B5C
:1005960014F9EF120054AB5A055CE55CAA5B7002D5
:1005A600055B14F9E554120054AB5A055CE55CAAE8
:1005B6005B7002055B14F9E4120054E5572440E42D
:1005C6003556FFAB5A055CE55CAA5B7002055B1409
:1005D600F9EF120054E5572440AB5AAA5BA95C1206
:0805E6000054AB55AA56A957B9
:0105EE0022EA
:01138D00223D
:01138E00223C
:01138F00223B
:03000000020CBF30
:100CBF0078FEE4F6D8FD9000007FFF7E01E4F0A3FC
:100CCF00DFFCDEFA756F017570007581A3020D1AD6
:101327007580FFC2B5D2B6D2B4AF80C2B4EF20E7A2
:01133700F6BF
:011338002292
:10133900AE07121327C2B5C2B68E80D2B4C2B42288
:10134900AE07121327D2B5C2B68E80D2B4C2B42268
:1012D400AE07AC03ED6003430640430680AF06123D
:0712E4001339AF04021349A6
:10126B008B448A458946ED60034307404307801250
:10127B001339AB44AA45A94612000E60130546E587
:10128B00467002054514F912000EFF12134980E255
:01129B002230
:101300007F381213397F0C1213397F061213397F7D
:04131000010213398A
:0E13780043757272656E742054696D653A009B
:0F135900420000000042000400004200020000B9
:0610DE00ED2BFDEC3AFCD5
:1010E400C29200C29000D29200E4FEC29000EF309F
:1010F400E004D2918002C291EFC313FFD290000E9C
:10110400BE08E8AF05E4FEC29000EF30E004D291DF
:101114008002C291EFC313FFD290000EBE08E8C252
:0311240092C290E4
:0111270022A5
:10104400C29200C29000D292E4FDC29000EF30E060
:1010540004D2918002C291EFC313FFD290000DBD60
:1010640008E8E4FDC29000309103430680EDC39488
:10107400075004EEC313FED2900DBD08E7EEC4542E
:0E1084000F53060F75F00AA42EC292C290FF01
:01109200223B
:10116D001212EB121314754700754800754900757E
:10117D004A01754B00754C06754D047BFF7A057958
:10118D00EF120C15754700754800754900754A0139
:10119D00754B00754C46754D057BFF7A0A7901122A
:0511AD000C15021231D7
:1005EF0090FFFD120397EBF0A3EAF0A3E9F07F0A67
:1005FF007E001211B2639008E4FDFC7F8E1210E4AE
:10060F0020B06B7F017E001211B220B06190000309
:10061F00E02401FF900002E03400FE7C007D181200
:10062F0000887E007F0ACFCDCFCECCCE120088EFD0
:10063F00C4F8540FC868FBEEC454F048FAA3E02482
:10064F0001FF900002E03400FE7C007D181200884C
:10065F007E007F0ACFCDCFCECCCE1200887F841202
:10066F0010DE20B0097F017E001211B280F420B19C
:10067F006B7F017E001211B220B161900005E02462
:10068F0001FF900004E03400FE7C007D3C120088E6
:10069F007E007F0ACFCDCFCECCCE120088EFC4F82C
:1006AF00540FC868FBEEC454F048FAA3E02401FFCE
:1006BF00900004E03400FE7C007D3C1200887E0038
:1006CF007F0ACFCDCFCECCCE1200887F821210DE24
:1006DF0020B1097F017E001211B280F430B2030203
:1006EF0005FD7F017E001211B230B2030205FD90AD
:1006FF000001E02401FF900000E03400FE7C007D4B
:10070F003C1200887E007F0ACFCDCFCECCCE120018
:10071F0088EFC4F8540FC868FBEEC454F048FAA32E
:10072F00E02401FF900000E03400FE7C007D3C12CD
:10073F0000887E007F0ACFCDCFCECCCE120088EDC1
:10074F002BFFEC3AFE7C007D3C1200887F8012105C
:10075F00E430B2030205FD7F017E001211B280F179
:100A010090FFFD120397EBF0A3EAF0A3E9F01213B4
:100A1100007BFF7A137978E4FDFF12126BE49000FA
:100A210000F0A3F0E4FDFC7F8E1210E47F8512102C
:100A310044900002E4F0A3EFF07F83121044A3E49A
:100A4100F0A3EFF07F81121044900000E4F0A3EFD7
:100A5100F07D807F8E1210E4A3E0FEA3E0FF7D0A0B
:100A6100120088EF2430FB7D017F041212D4900024
:100A710002E0FEA3E0FF7C007D0A120088ED243035
:100A8100FB7D017F051212D47B3A7D017F06121294
:100A9100D4900004E0FEA3E0FF7C007D0A120088F0
:100AA100EF2430FB7D017F071212D4900004E0FE99
:100AB100A3E0FF7C007D0A120088ED2430FB7D015C
:100AC1007F081212D47B3A7D017F091212D4900063
:100AD10000E0FEA3E0FF7C007D0A120088EF2430D5
:100AE100FB7D017F0A1212D4900000E0FEA3E0FF1B
:100AF1007C007D0A120088ED2430FB7D017F0B1202
:0C0B010012D47F0F7E001211B2020A25F0
:101314005389F0438901758CB8E4F58AD2A9D28C3B
:03132400D2AF2223
:100CDF0002116DE493A3F8E493A34003F68001F2AD
:100CEF0008DFF48029E493A3F85407240CC8C33316
:100CFF00C4540F4420C8834004F456800146F6DFE5
:100D0F00E4800B0102040810204080901359E47E08
:100D1F00019360BCA3FF543F30E509541FFEE493D9
:100D2F00A360010ECF54C025E060A840B8E493A3A0
:100D3F00FAE493A3F8E493A3C8C582C8CAC583CACB
:100D4F00F0A3C8C582C8CAC583CADFE9DEE780BE83
:011368000084
:10000E00BB010689828A83E0225002E722BBFE02F0
:09001E00E32289828A83E4932223
:10002700BB010CE58229F582E5833AF583E022508E
:1000370006E92582F8E622BBFE06E92582F8E222D8
:0D004700E58229F582E5833AF583E49322F2
:10005400BB010689828A83F0225002F722BBFE018B
:02006400F32285
:10006600F8BB010DE58229F582E5833AF583E8F0D0
:10007600225006E92582C8F622BBFE05E92582C87C
:02008600F22264
:10008800BC000BBE0029EF8DF084FFADF022E4CC5C
:10009800F875F008EF2FFFEE33FEEC33FCEE9DEC25
:1000A800984005FCEE9DFE0FD5F0E9E4CEFD22ED6B
:1000B800F8F5F0EE8420D21CFEADF075F008EF2FB5
:1000C800FFED33FD4007985006D5F0F222C398FDA6
:0500D8000FD5F0EA2243
:1000DD00BB0110E58229F582E5833AF583E0F5F061
:1000ED00A3E0225009E92582F886F008E622BBFE3E
:1000FD000AE92582F8E2F5F008E222E5832AF58384
:08010D00E993F5F0A3E9932248
:10011500BB010DC58229C582C5833AC5830203E8A3
:100125005011C58229F808E5F026F618F5F0E582A4
:1001350036F622BBFE11C58229F808E225F0F5F056
:10014500F218E23582F222F8E58229F582E5832A62
:0D015500F58374019325F0F5F0E493382252
:10016200F8BB0111E58229F582E5833AF583E8F0CF
:10017200E5F0A3F0225009E92582C8F608A6F0228C
:0D018200BBFE09E92582C8F2E5F008F22273
:10018F00E88FF0A4CC8BF0A42CFCE98EF0A42CFC0F
:10019F008AF0EDA42CFCEA8EF0A4CDA8F08BF0A48D
:1001AF002DCC3825F0FDE98FF0A42CCD35F0FCEBEC
:1001BF008EF0A4FEA9F0EB8FF0A4CFC5F02ECD39B1
:0F01CF00FEE43CFCEAA42DCE35F0FDE43CFC221E
:1001DE0075F008758200EF2FFFEE33FECD33CDCCD8
:1001EE0033CCC58233C5829BED9AEC99E58298405B
:1001FE000CF582EE9BFEED9AFDEC99FC0FD5F0D638
:10020E00E4CEFBE4CDFAE4CCF9A88222B800C1B961
:10021E000059BA002DEC8BF084CFCECDFCE5F0CB9F
:10022E00F97818EF2FFFEE33FEED33FDEC33FCEBD8
:10023E0033FB10D703994004EB99FB0FD8E5E4F993
:10024E00FA227818EF2FFFEE33FEED33FDEC33FC80
:10025E00C933C910D7059BE99A4007EC9BFCE99A74
:10026E00F90FD8E0E4C9FAE4CCFB2275F010EF2FB9
:10027E00FFEE33FEED33FDCC33CCC833C810D707B9
:10028E009BEC9AE899400AED9BFDEC9AFCE899F8F4
:0E029E000FD5F0DAE4CDFBE4CCFAE4C8F92287
:1002AC00E8600FECC313FCED13FDEE13FEEF13FF30
:0302BC00D8F12254
:1002BF00BB011A89828A83D0F0D0E0F8D0E0F9D060
:1002CF00E0FAD0E0FBE8C0E0C0F00204195016E9F4
:1002DF00F8D083D082D0E0F9D0E0FAD0E0FBC08232
:1002EF00C083020407BBFE16E9F8D083D082D0E0AA
:0F02FF00F9D0E0FAD0E0FBC082C08302042B22CA
:10030E00BB010DE58229F582E5833AF583020410DF
:10031E005007E92582F80203FEBBFE07E92582F8A5
:10032E00020422E58229F582E5833AF5830204343C
:10033E00BB0120E58229F582E5833AF583D0F0D022
:10034E00E0F8D0E0F9D0E0FAD0E0FBE8C0E0C0F091
:10035E000204195018E92582F8D083D082D0E0F932
:10036E00D0E0FAD0E0FBC082C083020407BBFE18C7
:10037E00E92582F8D083D082D0E0F9D0E0FAD0E03F
:09038E00FBC082C08302042B2293
:10039700E5702582F582E56F3583F583B56F0485B2
:1003A70082702210AF06858270F56F22858270F504
:0403B7006FD2AF2230
:1003BB00EC8EF0A4CCC5F0CCCDF8EFA4CEC5F02DCF
:1003CB00FDE43CFCE8A42EC8C5F03DFDE43CFCEF8D
:0D03DB00A4FFE5F028FEE43DFDE43CFC221B
:1003E800C5F0F8A3E028F0C5F0F8E58215827002A0
:0603F8001583E038F0223D
:0903FE00E6FB08E6FA08E6F92224
:09040700EBF608EAF608E9F6221A
:09041000E0FBA3E0FAA3E0F922ED
:09041900EBF0A3EAF0A3E9F022E4
:09042200E2FB08E2FA08E2F9220B
:09042B00EBF208EAF208E9F22202
:0C043400E493FB740193FA740293F92224
:00000001FF
